:03000000020C05EA
:0C0C0500787FE4F6D8FD75812702090F06
:0E0BF70018244281FF99667EBDDBE7FF0000F7
:0D0B550074112510F8E6F4F5A0AF0EAE0DFA
:100B6200D3EF9400EE940040147D727C00ED1D7072
:0D0B7200011CED4C70F7EF1F70E61E80E3D4
:010B7F002253
:040C11007FD07E070B
:060C150075A0FF020B6256
:0E0A99007510007511087BC87A00AD267F6CC1
:040AA7008F0CA90502
:100AAB00900000C3E5829511E5839510502B89A02A
:100ABB00E50CB46C0E7801AF01EF08800123D8FD73
:100ACB00F9800C7801AF01EF08800103D8FDF9AF75
:090ADB0003AE02120B62A380CAF3
:010AE40022EF
:0609D0008F0C8C0D8D0E52
:1009D60078117C007D007BFF7A0B79F77E007F041F
:1009E6001208D0E50CB46B1DE4F50FF510120B558B
:1009F6000510E5107002050FC39404E50F6480949A
:100A06008040EA801FE50CB4731A750F0075100359
:100A1600120B55E51015107002150FC3E50F648013
:100A2600948050ECE4F50FF5107FD07E07020C158C
:040B8000AB07AA060F
:100B8400900000C3E5829BEA6480F8E58364809862
:100B94005013E4F5A07FC8FE120B627FC87E0012DA
:050BA4000C15A380DE2A
:010BA9002229
:040AE500AB07AA06AB
:100AE90079806301FF900001D3E5829BEA6480F875
:100AF900E583648098502189A07FC87E00120B622B
:100B0900AF82A807AF01EF08800103D8FDF97F0183
:080B19007E00120C15A380D030
:010B210022B1
:040B2200AB07AA066D
:100B260079AA6301FF900001D3E5829BEA6480F80D
:100B3600E583648098501789A07FC87E00120B62F7
:0E0B4600E9F4F5A07FC87E00120B62A380DAEE
:010B5400227E
:100BD100750C00750D01750E00750F087510007507
:100BE1001101E50D450C600DAF0FAE0E120A36E591
:050BF10011451060ED4C
:010BF60022DC
:040BAA00AB07AA06E5
:100BAE00752433752580900000C3E5829BEA64802E
:100BBE00F8E583648098500AAF25AE24120B62A329
:020BCE0080E7BE
:010BD0002202
:040A36008E128F137A
:100A3A0078147C007D007BFF7A0B79FB7E007F0AAD
:100A4A001208D0751E00751F007520147414251322
:100A5A00F9E4F521F5228923C3852283852382E5DA
:100A6A00209582E51F9583501FAB1EAA1FA920124D
:100A7A0008F6F5A07F2C7E01120B6274012520F581
:0F0A8A0020E4351FF51F80D07F107E27020BAAB6
:10090F007508007509647526FE75277F120A9912FE
:10091F000C11751000751108AD277F72120AA712FE
:10092F000C11751000751108120AA37510007511BE
:10093F0008AD277F72120AA7120C11750A00750BEA
:10094F00017DC87C007F6B1209D0050BE50B70028F
:10095F00050AD39403E50A6480948040E4120C11D5
:10096F00750A00750B017DC87C007F731209D005D5
:10097F000BE50B7002050AD39403E50A648094809B
:10098F0040E4120C117F037E00120B80120A9912A1
:10099F000C117F047E00120AE5120C117F037E00FA
:1009AF00120B22120C11120BD1120C11E5091509A1
:1009BF0070021508E5094508600302091BE4FEFFF4
:0109CF002205
:10080000E709F608DFFA8046E709F208DFFA803EDA
:1008100088828C83E709F0A3DFFA8032E309F608C7
:10082000DFFA8078E309F208DFFA807088828C832F
:10083000E309F0A3DFFA806489828A83E0A3F608E3
:10084000DFFA805889828A83E0A3F208DFFA804CBD
:1008500080D280FA80C680D4806980F28033801094
:1008600080A680EA809A80A880DA80E280CA8033FD
:1008700089828A83ECFAE493A3C8C582C8CCC58375
:10088000CCF0A3C8C582C8CCC583CCDFE9DEE78045
:100890000D89828A83E493A3F608DFF9ECFAA9F0C4
:1008A000EDFB2289828A83ECFAE0A3C8C582C8CC1A
:1008B000C583CCF0A3C8C582C8CCC583CCDFEADE33
:1008C000E880DB89828A83E493A3F208DFF980CC95
:1008D00088F0EF60010E4E60C388F0ED2402B4048E
:1008E0000050B9F582EB2402B4040050AF23234535
:0608F00082239008507302
:1008F600BB010689828A83E0225002E722BBFE0200
:09090600E32289828A83E4932232
:00000001FF
